{
  "_format": "hh-sol-artifact-1",
  "contractName": "wRats",
  "sourceName": "contracts/wRats.sol",
  "abi": [
    {
      "inputs": [],
      "stateMutability": "nonpayable",
      "type": "constructor"
    },
    {
      "anonymous": false,
      "inputs": [
        {
          "indexed": false,
          "internalType": "bytes32",
          "name": "x_cor",
          "type": "bytes32"
        },
        {
          "indexed": false,
          "internalType": "bytes32",
          "name": "y_cor",
          "type": "bytes32"
        },
        {
          "indexed": false,
          "internalType": "bytes1",
          "name": "sharedSecret",
          "type": "bytes1"
        }
      ],
      "name": "publicKeys",
      "type": "event"
    },
    {
      "inputs": [
        {
          "internalType": "bytes32",
          "name": "x_cor",
          "type": "bytes32"
        },
        {
          "internalType": "bytes32",
          "name": "y_cor",
          "type": "bytes32"
        },
        {
          "internalType": "bytes1",
          "name": "sharedSecret",
          "type": "bytes1"
        },
        {
          "internalType": "address payable",
          "name": "target",
          "type": "address"
        }
      ],
      "name": "TransferAvax",
      "outputs": [
        {
          "internalType": "uint256",
          "name": "",
          "type": "uint256"
        }
      ],
      "stateMutability": "payable",
      "type": "function"
    },
    {
      "inputs": [
        {
          "internalType": "bytes32",
          "name": "x_cor",
          "type": "bytes32"
        },
        {
          "internalType": "bytes32",
          "name": "y_cor",
          "type": "bytes32"
        },
        {
          "internalType": "bytes1",
          "name": "sharedSecret",
          "type": "bytes1"
        },
        {
          "internalType": "address",
          "name": "token",
          "type": "address"
        },
        {
          "internalType": "address",
          "name": "target",
          "type": "address"
        },
        {
          "internalType": "uint256",
          "name": "amount",
          "type": "uint256"
        }
      ],
      "name": "TransferERC20",
      "outputs": [],
      "stateMutability": "payable",
      "type": "function"
    },
    {
      "inputs": [
        {
          "internalType": "bytes32",
          "name": "x_cor",
          "type": "bytes32"
        },
        {
          "internalType": "bytes32",
          "name": "y_cor",
          "type": "bytes32"
        },
        {
          "internalType": "bytes1",
          "name": "sharedSecret",
          "type": "bytes1"
        },
        {
          "internalType": "address",
          "name": "ERC721Token",
          "type": "address"
        },
        {
          "internalType": "address",
          "name": "target",
          "type": "address"
        },
        {
          "internalType": "uint256",
          "name": "tokenId",
          "type": "uint256"
        }
      ],
      "name": "TransferERC721",
      "outputs": [],
      "stateMutability": "nonpayable",
      "type": "function"
    },
    {
      "inputs": [],
      "name": "contractName",
      "outputs": [
        {
          "internalType": "string",
          "name": "",
          "type": "string"
        }
      ],
      "stateMutability": "view",
      "type": "function"
    },
    {
      "inputs": [],
      "name": "getTotalVolume",
      "outputs": [
        {
          "internalType": "uint256",
          "name": "",
          "type": "uint256"
        }
      ],
      "stateMutability": "view",
      "type": "function"
    },
    {
      "inputs": [],
      "name": "gettotalStealthAddresses",
      "outputs": [
        {
          "internalType": "uint256",
          "name": "",
          "type": "uint256"
        }
      ],
      "stateMutability": "view",
      "type": "function"
    },
    {
      "inputs": [
        {
          "internalType": "uint256",
          "name": "",
          "type": "uint256"
        }
      ],
      "name": "logs",
      "outputs": [
        {
          "internalType": "bytes32",
          "name": "x_cor",
          "type": "bytes32"
        },
        {
          "internalType": "bytes32",
          "name": "y_cor",
          "type": "bytes32"
        },
        {
          "internalType": "bytes1",
          "name": "sharedSecret",
          "type": "bytes1"
        }
      ],
      "stateMutability": "view",
      "type": "function"
    },
    {
      "inputs": [],
      "name": "pubKeysLen",
      "outputs": [
        {
          "internalType": "uint256",
          "name": "",
          "type": "uint256"
        }
      ],
      "stateMutability": "view",
      "type": "function"
    },
    {
      "inputs": [
        {
          "internalType": "uint256",
          "name": "initVal",
          "type": "uint256"
        }
      ],
      "name": "retrievePubKeys",
      "outputs": [
        {
          "components": [
            {
              "internalType": "bytes32",
              "name": "x_cor",
              "type": "bytes32"
            },
            {
              "internalType": "bytes32",
              "name": "y_cor",
              "type": "bytes32"
            },
            {
              "internalType": "bytes1",
              "name": "sharedSecret",
              "type": "bytes1"
            }
          ],
          "internalType": "struct wRats.publickeys[10]",
          "name": "",
          "type": "tuple[10]"
        }
      ],
      "stateMutability": "view",
      "type": "function"
    }
  ],
  "bytecode": "0x60806040523480156200001157600080fd5b5033600260006101000a81548173ffffffffffffffffffffffffffffffffffffffff021916908373ffffffffffffffffffffffffffffffffffffffff1602179055506040518060400160405280600881526020017f7752617473207631000000000000000000000000000000000000000000000000815250600490816200009991906200031a565b5062000401565b600081519050919050565b7f4e487b7100000000000000000000000000000000000000000000000000000000600052604160045260246000fd5b7f4e487b7100000000000000000000000000000000000000000000000000000000600052602260045260246000fd5b600060028204905060018216806200012257607f821691505b602082108103620001385762000137620000da565b5b50919050565b60008190508160005260206000209050919050565b60006020601f8301049050919050565b600082821b905092915050565b600060088302620001a27fffffffffffffffffffffffffffffffffffffffffffffffffffffffffffffffff8262000163565b620001ae868362000163565b95508019841693508086168417925050509392505050565b6000819050919050565b6000819050919050565b6000620001fb620001f5620001ef84620001c6565b620001d0565b620001c6565b9050919050565b6000819050919050565b6200021783620001da565b6200022f620002268262000202565b84845462000170565b825550505050565b600090565b6200024662000237565b620002538184846200020c565b505050565b5b818110156200027b576200026f6000826200023c565b60018101905062000259565b5050565b601f821115620002ca5762000294816200013e565b6200029f8462000153565b81016020851015620002af578190505b620002c7620002be8562000153565b83018262000258565b50505b505050565b600082821c905092915050565b6000620002ef60001984600802620002cf565b1980831691505092915050565b60006200030a8383620002dc565b9150826002028217905092915050565b6200032582620000a0565b67ffffffffffffffff811115620003415762000340620000ab565b5b6200034d825462000109565b6200035a8282856200027f565b600060209050601f8311600181146200039257600084156200037d578287015190505b620003898582620002fc565b865550620003f9565b601f198416620003a2866200013e565b60005b82811015620003cc57848901518255600182019150602085019450602081019050620003a5565b86831015620003ec5784890151620003e8601f891682620002dc565b8355505b6001600288020188555050505b505050505050565b61185b80620004116000396000f3fe6080604052600436106100865760003560e01c8063723f4dbc11610059578063723f4dbc1461014757806375d0c0dc14610163578063a891abae1461018e578063e79899bd146101be578063f85598ca146101fd57610086565b8063092ab7331461008b5780630b9d98e9146100b65780632996f8c7146100e15780636bf2fc671461010a575b600080fd5b34801561009757600080fd5b506100a0610228565b6040516100ad9190610d15565b60405180910390f35b3480156100c257600080fd5b506100cb610232565b6040516100d89190610d15565b60405180910390f35b3480156100ed57600080fd5b5061010860048036038101906101039190610e4d565b61023b565b005b34801561011657600080fd5b50610131600480360381019061012c9190610eda565b61053f565b60405161013e9190611003565b60405180910390f35b610161600480360381019061015c9190610e4d565b610689565b005b34801561016f57600080fd5b5061017861098f565b60405161018591906110af565b60405180910390f35b6101a860048036038101906101a3919061110f565b610a1d565b6040516101b59190610d15565b60405180910390f35b3480156101ca57600080fd5b506101e560048036038101906101e09190610eda565b610b68565b6040516101f493929190611194565b60405180910390f35b34801561020957600080fd5b50610212610baf565b60405161021f9190610d15565b60405180910390f35b6000600154905090565b60008054905090565b600073ffffffffffffffffffffffffffffffffffffffff168373ffffffffffffffffffffffffffffffffffffffff16036102aa576040517f08c379a00000000000000000000000000000000000000000000000000000000081526004016102a190611217565b60405180910390fd5b3373ffffffffffffffffffffffffffffffffffffffff168373ffffffffffffffffffffffffffffffffffffffff16636352211e836040518263ffffffff1660e01b81526004016102fa9190610d15565b602060405180830381865afa158015610317573d6000803e3d6000fd5b505050506040513d601f19601f8201168201806040525081019061033b919061124c565b73ffffffffffffffffffffffffffffffffffffffff1614610391576040517f08c379a0000000000000000000000000000000000000000000000000000000008152600401610388906112eb565b60405180910390fd5b3073ffffffffffffffffffffffffffffffffffffffff168373ffffffffffffffffffffffffffffffffffffffff1663081812fc836040518263ffffffff1660e01b81526004016103e19190610d15565b602060405180830381865afa1580156103fe573d6000803e3d6000fd5b505050506040513d601f19601f82011682018060405250810190610422919061124c565b73ffffffffffffffffffffffffffffffffffffffff1614610478576040517f08c379a000000000000000000000000000000000000000000000000000000000815260040161046f90611357565b60405180910390fd5b610483868686610bbc565b8273ffffffffffffffffffffffffffffffffffffffff166323b872dd3384846040518463ffffffff1660e01b81526004016104c093929190611386565b600060405180830381600087803b1580156104da57600080fd5b505af11580156104ee573d6000803e3d6000fd5b505050506104fc6001610c60565b7f9038e78bed6bd8498b1dc0946afa69fc4f3f3a8062e6df5ed8c7957a9d5ba5ef86868660405161052f93929190611194565b60405180910390a1505050505050565b610547610c85565b61054f610c85565b6000600380549050841015610564578361056b565b6003805490505b90506000600a821161057e57600061058c565b600a8261058b91906113ec565b5b905060008290505b8181111561067d5760036001826105ab91906113ec565b815481106105bc576105bb611420565b5b906000526020600020906003020160405180606001604052908160008201548152602001600182015481526020016002820160009054906101000a900460f81b7effffffffffffffffffffffffffffffffffffffffffffffffffffffffffffff19167effffffffffffffffffffffffffffffffffffffffffffffffffffffffffffff19168152505084828561065191906113ec565b600a811061066257610661611420565b5b602002018190525080806106759061144f565b915050610594565b50829350505050919050565b82600073ffffffffffffffffffffffffffffffffffffffff168173ffffffffffffffffffffffffffffffffffffffff16036106f9576040517f08c379a00000000000000000000000000000000000000000000000000000000081526004016106f0906114c4565b60405180910390fd5b6000821161073c576040517f08c379a000000000000000000000000000000000000000000000000000000000815260040161073390611530565b60405180910390fd5b818473ffffffffffffffffffffffffffffffffffffffff166370a08231336040518263ffffffff1660e01b81526004016107769190611550565b602060405180830381865afa158015610793573d6000803e3d6000fd5b505050506040513d601f19601f820116820180604052508101906107b79190611580565b10156107f8576040517f08c379a00000000000000000000000000000000000000000000000000000000081526004016107ef906115f9565b60405180910390fd5b818473ffffffffffffffffffffffffffffffffffffffff1663dd62ed3e33306040518363ffffffff1660e01b8152600401610834929190611619565b602060405180830381865afa158015610851573d6000803e3d6000fd5b505050506040513d601f19601f820116820180604052508101906108759190611580565b10156108b6576040517f08c379a00000000000000000000000000000000000000000000000000000000081526004016108ad9061168e565b60405180910390fd5b6108c1878787610bbc565b8373ffffffffffffffffffffffffffffffffffffffff166323b872dd3385856040518463ffffffff1660e01b81526004016108fe93929190611386565b6020604051808303816000875af115801561091d573d6000803e3d6000fd5b505050506040513d601f19601f8201168201806040525081019061094191906116e6565b5061094b82610c60565b7f9038e78bed6bd8498b1dc0946afa69fc4f3f3a8062e6df5ed8c7957a9d5ba5ef87878760405161097e93929190611194565b60405180910390a150505050505050565b6004805461099c90611742565b80601f01602080910402602001604051908101604052809291908181526020018280546109c890611742565b8015610a155780601f106109ea57610100808354040283529160200191610a15565b820191906000526020600020905b8154815290600101906020018083116109f857829003601f168201915b505050505081565b6000803411610a61576040517f08c379a0000000000000000000000000000000000000000000000000000000008152600401610a5890611530565b60405180910390fd5b610a6c858585610bbc565b60008273ffffffffffffffffffffffffffffffffffffffff1634604051610a92906117a4565b60006040518083038185875af1925050503d8060008114610acf576040519150601f19603f3d011682016040523d82523d6000602084013e610ad4565b606091505b5050905080610b18576040517f08c379a0000000000000000000000000000000000000000000000000000000008152600401610b0f90611805565b60405180910390fd5b610b2134610c60565b7f9038e78bed6bd8498b1dc0946afa69fc4f3f3a8062e6df5ed8c7957a9d5ba5ef868686604051610b5493929190611194565b60405180910390a134915050949350505050565b60038181548110610b7857600080fd5b90600052602060002090600302016000915090508060000154908060010154908060020160009054906101000a900460f81b905083565b6000600380549050905090565b60036040518060600160405280858152602001848152602001837effffffffffffffffffffffffffffffffffffffffffffffffffffffffffffff19168152509080600181540180825580915050600190039060005260206000209060030201600090919091909150600082015181600001556020820151816001015560408201518160020160006101000a81548160ff021916908360f81c02179055505050505050565b6000806000549150600154905082820191506001810190508160005580600155505050565b604051806101400160405280600a905b610c9d610cb3565b815260200190600190039081610c955790505090565b6040518060600160405280600080191681526020016000801916815260200160007effffffffffffffffffffffffffffffffffffffffffffffffffffffffffffff191681525090565b6000819050919050565b610d0f81610cfc565b82525050565b6000602082019050610d2a6000830184610d06565b92915050565b600080fd5b6000819050919050565b610d4881610d35565b8114610d5357600080fd5b50565b600081359050610d6581610d3f565b92915050565b60007fff0000000000000000000000000000000000000000000000000000000000000082169050919050565b610da081610d6b565b8114610dab57600080fd5b50565b600081359050610dbd81610d97565b92915050565b600073ffffffffffffffffffffffffffffffffffffffff82169050919050565b6000610dee82610dc3565b9050919050565b610dfe81610de3565b8114610e0957600080fd5b50565b600081359050610e1b81610df5565b92915050565b610e2a81610cfc565b8114610e3557600080fd5b50565b600081359050610e4781610e21565b92915050565b60008060008060008060c08789031215610e6a57610e69610d30565b5b6000610e7889828a01610d56565b9650506020610e8989828a01610d56565b9550506040610e9a89828a01610dae565b9450506060610eab89828a01610e0c565b9350506080610ebc89828a01610e0c565b92505060a0610ecd89828a01610e38565b9150509295509295509295565b600060208284031215610ef057610eef610d30565b5b6000610efe84828501610e38565b91505092915050565b6000600a9050919050565b600081905092915050565b6000819050919050565b610f3081610d35565b82525050565b610f3f81610d6b565b82525050565b606082016000820151610f5b6000850182610f27565b506020820151610f6e6020850182610f27565b506040820151610f816040850182610f36565b50505050565b6000610f938383610f45565b60608301905092915050565b6000602082019050919050565b610fb581610f07565b610fbf8184610f12565b9250610fca82610f1d565b8060005b83811015610ffb578151610fe28782610f87565b9650610fed83610f9f565b925050600181019050610fce565b505050505050565b60006103c0820190506110196000830184610fac565b92915050565b600081519050919050565b600082825260208201905092915050565b60005b8381101561105957808201518184015260208101905061103e565b60008484015250505050565b6000601f19601f8301169050919050565b60006110818261101f565b61108b818561102a565b935061109b81856020860161103b565b6110a481611065565b840191505092915050565b600060208201905081810360008301526110c98184611076565b905092915050565b60006110dc82610dc3565b9050919050565b6110ec816110d1565b81146110f757600080fd5b50565b600081359050611109816110e3565b92915050565b6000806000806080858703121561112957611128610d30565b5b600061113787828801610d56565b945050602061114887828801610d56565b935050604061115987828801610dae565b925050606061116a878288016110fa565b91505092959194509250565b61117f81610d35565b82525050565b61118e81610d6b565b82525050565b60006060820190506111a96000830186611176565b6111b66020830185611176565b6111c36040830184611185565b949350505050565b7f20456e7465722074686520746f6b656e20616464726573730000000000000000600082015250565b600061120160188361102a565b915061120c826111cb565b602082019050919050565b60006020820190508181036000830152611230816111f4565b9050919050565b60008151905061124681610df5565b92915050565b60006020828403121561126257611261610d30565b5b600061127084828501611237565b91505092915050565b7f596f7520617265206e6f7420746865206f776e6572206f66207468697320746f60008201527f6b656e4964000000000000000000000000000000000000000000000000000000602082015250565b60006112d560258361102a565b91506112e082611279565b604082019050919050565b60006020820190508181036000830152611304816112c8565b9050919050565b7f4e6f7420617070726f7665640000000000000000000000000000000000000000600082015250565b6000611341600c8361102a565b915061134c8261130b565b602082019050919050565b6000602082019050818103600083015261137081611334565b9050919050565b61138081610de3565b82525050565b600060608201905061139b6000830186611377565b6113a86020830185611377565b6113b56040830184610d06565b949350505050565b7f4e487b7100000000000000000000000000000000000000000000000000000000600052601160045260246000fd5b60006113f782610cfc565b915061140283610cfc565b925082820390508181111561141a576114196113bd565b5b92915050565b7f4e487b7100000000000000000000000000000000000000000000000000000000600052603260045260246000fd5b600061145a82610cfc565b91506000820361146d5761146c6113bd565b5b600182039050919050565b7f546f6b656e206164647265737320726571756972656400000000000000000000600082015250565b60006114ae60168361102a565b91506114b982611478565b602082019050919050565b600060208201905081810360008301526114dd816114a1565b9050919050565b7f416d6f756e742073686f756c64206265206d6f7265207468616e203000000000600082015250565b600061151a601c8361102a565b9150611525826114e4565b602082019050919050565b600060208201905081810360008301526115498161150d565b9050919050565b60006020820190506115656000830184611377565b92915050565b60008151905061157a81610e21565b92915050565b60006020828403121561159657611595610d30565b5b60006115a48482850161156b565b91505092915050565b7f4e6f7420656e6f75676820746f6b656e73000000000000000000000000000000600082015250565b60006115e360118361102a565b91506115ee826115ad565b602082019050919050565b60006020820190508181036000830152611612816115d6565b9050919050565b600060408201905061162e6000830185611377565b61163b6020830184611377565b9392505050565b7f4e6f7420656e6f75676820616c6c6f77616e6365000000000000000000000000600082015250565b600061167860148361102a565b915061168382611642565b602082019050919050565b600060208201905081810360008301526116a78161166b565b9050919050565b60008115159050919050565b6116c3816116ae565b81146116ce57600080fd5b50565b6000815190506116e0816116ba565b92915050565b6000602082840312156116fc576116fb610d30565b5b600061170a848285016116d1565b91505092915050565b7f4e487b7100000000000000000000000000000000000000000000000000000000600052602260045260246000fd5b6000600282049050600182168061175a57607f821691505b60208210810361176d5761176c611713565b5b50919050565b600081905092915050565b50565b600061178e600083611773565b91506117998261177e565b600082019050919050565b60006117af82611781565b9150819050919050565b7f5472616e7366657220746f20726563697069656e74206661696c656400000000600082015250565b60006117ef601c8361102a565b91506117fa826117b9565b602082019050919050565b6000602082019050818103600083015261181e816117e2565b905091905056fea2646970667358221220923ca604948faf616273f5ee745460d0920449ae99c11d65df078a10ab46ed8364736f6c63430008100033",
  "linkReferences": {},
  "deployedLinkReferences": {}
}