{
  "_format": "hh-sol-artifact-1",
  "contractName": "wRats",
  "sourceName": "contracts/wRats.sol",
  "abi": [
    {
      "inputs": [],
      "stateMutability": "nonpayable",
      "type": "constructor"
    },
    {
      "anonymous": false,
      "inputs": [
        {
          "indexed": false,
          "internalType": "bytes32",
          "name": "x_cor",
          "type": "bytes32"
        },
        {
          "indexed": false,
          "internalType": "bytes32",
          "name": "y_cor",
          "type": "bytes32"
        },
        {
          "indexed": false,
          "internalType": "bytes1",
          "name": "sharedSecret",
          "type": "bytes1"
        }
      ],
      "name": "publicKeys",
      "type": "event"
    },
    {
      "inputs": [
        {
          "internalType": "bytes32",
          "name": "x_cor",
          "type": "bytes32"
        },
        {
          "internalType": "bytes32",
          "name": "y_cor",
          "type": "bytes32"
        },
        {
          "internalType": "bytes1",
          "name": "sharedSecret",
          "type": "bytes1"
        },
        {
          "internalType": "address payable",
          "name": "target",
          "type": "address"
        }
      ],
      "name": "TransferAreon",
      "outputs": [
        {
          "internalType": "uint256",
          "name": "",
          "type": "uint256"
        }
      ],
      "stateMutability": "payable",
      "type": "function"
    },
    {
      "inputs": [
        {
          "internalType": "bytes32",
          "name": "x_cor",
          "type": "bytes32"
        },
        {
          "internalType": "bytes32",
          "name": "y_cor",
          "type": "bytes32"
        },
        {
          "internalType": "bytes1",
          "name": "sharedSecret",
          "type": "bytes1"
        },
        {
          "internalType": "address",
          "name": "token",
          "type": "address"
        },
        {
          "internalType": "address",
          "name": "target",
          "type": "address"
        },
        {
          "internalType": "uint256",
          "name": "amount",
          "type": "uint256"
        }
      ],
      "name": "TransferERC20",
      "outputs": [],
      "stateMutability": "payable",
      "type": "function"
    },
    {
      "inputs": [
        {
          "internalType": "bytes32",
          "name": "x_cor",
          "type": "bytes32"
        },
        {
          "internalType": "bytes32",
          "name": "y_cor",
          "type": "bytes32"
        },
        {
          "internalType": "bytes1",
          "name": "sharedSecret",
          "type": "bytes1"
        },
        {
          "internalType": "address",
          "name": "ERC721Token",
          "type": "address"
        },
        {
          "internalType": "address",
          "name": "target",
          "type": "address"
        },
        {
          "internalType": "uint256",
          "name": "tokenId",
          "type": "uint256"
        }
      ],
      "name": "TransferERC721",
      "outputs": [],
      "stateMutability": "nonpayable",
      "type": "function"
    },
    {
      "inputs": [],
      "name": "contractName",
      "outputs": [
        {
          "internalType": "string",
          "name": "",
          "type": "string"
        }
      ],
      "stateMutability": "view",
      "type": "function"
    },
    {
      "inputs": [],
      "name": "getTotalVolume",
      "outputs": [
        {
          "internalType": "uint256",
          "name": "",
          "type": "uint256"
        }
      ],
      "stateMutability": "view",
      "type": "function"
    },
    {
      "inputs": [],
      "name": "gettotalStealthAddresses",
      "outputs": [
        {
          "internalType": "uint256",
          "name": "",
          "type": "uint256"
        }
      ],
      "stateMutability": "view",
      "type": "function"
    },
    {
      "inputs": [
        {
          "internalType": "uint256",
          "name": "",
          "type": "uint256"
        }
      ],
      "name": "logs",
      "outputs": [
        {
          "internalType": "bytes32",
          "name": "x_cor",
          "type": "bytes32"
        },
        {
          "internalType": "bytes32",
          "name": "y_cor",
          "type": "bytes32"
        },
        {
          "internalType": "bytes1",
          "name": "sharedSecret",
          "type": "bytes1"
        }
      ],
      "stateMutability": "view",
      "type": "function"
    },
    {
      "inputs": [],
      "name": "pubKeysLen",
      "outputs": [
        {
          "internalType": "uint256",
          "name": "",
          "type": "uint256"
        }
      ],
      "stateMutability": "view",
      "type": "function"
    },
    {
      "inputs": [
        {
          "internalType": "uint256",
          "name": "initVal",
          "type": "uint256"
        }
      ],
      "name": "retrievePublicKeys",
      "outputs": [
        {
          "components": [
            {
              "internalType": "bytes32",
              "name": "x_cor",
              "type": "bytes32"
            },
            {
              "internalType": "bytes32",
              "name": "y_cor",
              "type": "bytes32"
            },
            {
              "internalType": "bytes1",
              "name": "sharedSecret",
              "type": "bytes1"
            }
          ],
          "internalType": "struct wRats.publickeys[10]",
          "name": "",
          "type": "tuple[10]"
        }
      ],
      "stateMutability": "view",
      "type": "function"
    }
  ],
  "bytecode": "0x60806040523480156200001157600080fd5b5033600260006101000a81548173ffffffffffffffffffffffffffffffffffffffff021916908373ffffffffffffffffffffffffffffffffffffffff1602179055506040518060400160405280600881526020017f7752617473207631000000000000000000000000000000000000000000000000815250600490816200009991906200031a565b5062000401565b600081519050919050565b7f4e487b7100000000000000000000000000000000000000000000000000000000600052604160045260246000fd5b7f4e487b7100000000000000000000000000000000000000000000000000000000600052602260045260246000fd5b600060028204905060018216806200012257607f821691505b602082108103620001385762000137620000da565b5b50919050565b60008190508160005260206000209050919050565b60006020601f8301049050919050565b600082821b905092915050565b600060088302620001a27fffffffffffffffffffffffffffffffffffffffffffffffffffffffffffffffff8262000163565b620001ae868362000163565b95508019841693508086168417925050509392505050565b6000819050919050565b6000819050919050565b6000620001fb620001f5620001ef84620001c6565b620001d0565b620001c6565b9050919050565b6000819050919050565b6200021783620001da565b6200022f620002268262000202565b84845462000170565b825550505050565b600090565b6200024662000237565b620002538184846200020c565b505050565b5b818110156200027b576200026f6000826200023c565b60018101905062000259565b5050565b601f821115620002ca5762000294816200013e565b6200029f8462000153565b81016020851015620002af578190505b620002c7620002be8562000153565b83018262000258565b50505b505050565b600082821c905092915050565b6000620002ef60001984600802620002cf565b1980831691505092915050565b60006200030a8383620002dc565b9150826002028217905092915050565b6200032582620000a0565b67ffffffffffffffff811115620003415762000340620000ab565b5b6200034d825462000109565b6200035a8282856200027f565b600060209050601f8311600181146200039257600084156200037d578287015190505b620003898582620002fc565b865550620003f9565b601f198416620003a2866200013e565b60005b82811015620003cc57848901518255600182019150602085019450602081019050620003a5565b86831015620003ec5784890151620003e8601f891682620002dc565b8355505b6001600288020188555050505b505050505050565b61185b80620004116000396000f3fe6080604052600436106100865760003560e01c806375d0c0dc1161005957806375d0c0dc14610126578063dd9d412a14610151578063e79899bd14610181578063f51ba915146101c0578063f85598ca146101fd57610086565b8063092ab7331461008b5780630b9d98e9146100b65780632996f8c7146100e1578063723f4dbc1461010a575b600080fd5b34801561009757600080fd5b506100a0610228565b6040516100ad9190610d15565b60405180910390f35b3480156100c257600080fd5b506100cb610232565b6040516100d89190610d15565b60405180910390f35b3480156100ed57600080fd5b5061010860048036038101906101039190610e4d565b61023b565b005b610124600480360381019061011f9190610e4d565b61053f565b005b34801561013257600080fd5b5061013b610845565b6040516101489190610f6a565b60405180910390f35b61016b60048036038101906101669190610fca565b6108d3565b6040516101789190610d15565b60405180910390f35b34801561018d57600080fd5b506101a860048036038101906101a39190611031565b610a1e565b6040516101b79392919061107c565b60405180910390f35b3480156101cc57600080fd5b506101e760048036038101906101e29190611031565b610a65565b6040516101f491906111af565b60405180910390f35b34801561020957600080fd5b50610212610baf565b60405161021f9190610d15565b60405180910390f35b6000600154905090565b60008054905090565b600073ffffffffffffffffffffffffffffffffffffffff168373ffffffffffffffffffffffffffffffffffffffff16036102aa576040517f08c379a00000000000000000000000000000000000000000000000000000000081526004016102a190611217565b60405180910390fd5b3373ffffffffffffffffffffffffffffffffffffffff168373ffffffffffffffffffffffffffffffffffffffff16636352211e836040518263ffffffff1660e01b81526004016102fa9190610d15565b602060405180830381865afa158015610317573d6000803e3d6000fd5b505050506040513d601f19601f8201168201806040525081019061033b919061124c565b73ffffffffffffffffffffffffffffffffffffffff1614610391576040517f08c379a0000000000000000000000000000000000000000000000000000000008152600401610388906112eb565b60405180910390fd5b3073ffffffffffffffffffffffffffffffffffffffff168373ffffffffffffffffffffffffffffffffffffffff1663081812fc836040518263ffffffff1660e01b81526004016103e19190610d15565b602060405180830381865afa1580156103fe573d6000803e3d6000fd5b505050506040513d601f19601f82011682018060405250810190610422919061124c565b73ffffffffffffffffffffffffffffffffffffffff1614610478576040517f08c379a000000000000000000000000000000000000000000000000000000000815260040161046f90611357565b60405180910390fd5b610483868686610bbc565b8273ffffffffffffffffffffffffffffffffffffffff166323b872dd3384846040518463ffffffff1660e01b81526004016104c093929190611386565b600060405180830381600087803b1580156104da57600080fd5b505af11580156104ee573d6000803e3d6000fd5b505050506104fc6001610c60565b7f9038e78bed6bd8498b1dc0946afa69fc4f3f3a8062e6df5ed8c7957a9d5ba5ef86868660405161052f9392919061107c565b60405180910390a1505050505050565b82600073ffffffffffffffffffffffffffffffffffffffff168173ffffffffffffffffffffffffffffffffffffffff16036105af576040517f08c379a00000000000000000000000000000000000000000000000000000000081526004016105a690611409565b60405180910390fd5b600082116105f2576040517f08c379a00000000000000000000000000000000000000000000000000000000081526004016105e990611475565b60405180910390fd5b818473ffffffffffffffffffffffffffffffffffffffff166370a08231336040518263ffffffff1660e01b815260040161062c9190611495565b602060405180830381865afa158015610649573d6000803e3d6000fd5b505050506040513d601f19601f8201168201806040525081019061066d91906114c5565b10156106ae576040517f08c379a00000000000000000000000000000000000000000000000000000000081526004016106a59061153e565b60405180910390fd5b818473ffffffffffffffffffffffffffffffffffffffff1663dd62ed3e33306040518363ffffffff1660e01b81526004016106ea92919061155e565b602060405180830381865afa158015610707573d6000803e3d6000fd5b505050506040513d601f19601f8201168201806040525081019061072b91906114c5565b101561076c576040517f08c379a0000000000000000000000000000000000000000000000000000000008152600401610763906115d3565b60405180910390fd5b610777878787610bbc565b8373ffffffffffffffffffffffffffffffffffffffff166323b872dd3385856040518463ffffffff1660e01b81526004016107b493929190611386565b6020604051808303816000875af11580156107d3573d6000803e3d6000fd5b505050506040513d601f19601f820116820180604052508101906107f7919061162b565b5061080182610c60565b7f9038e78bed6bd8498b1dc0946afa69fc4f3f3a8062e6df5ed8c7957a9d5ba5ef8787876040516108349392919061107c565b60405180910390a150505050505050565b6004805461085290611687565b80601f016020809104026020016040519081016040528092919081815260200182805461087e90611687565b80156108cb5780601f106108a0576101008083540402835291602001916108cb565b820191906000526020600020905b8154815290600101906020018083116108ae57829003601f168201915b505050505081565b6000803411610917576040517f08c379a000000000000000000000000000000000000000000000000000000000815260040161090e90611475565b60405180910390fd5b610922858585610bbc565b60008273ffffffffffffffffffffffffffffffffffffffff1634604051610948906116e9565b60006040518083038185875af1925050503d8060008114610985576040519150601f19603f3d011682016040523d82523d6000602084013e61098a565b606091505b50509050806109ce576040517f08c379a00000000000000000000000000000000000000000000000000000000081526004016109c59061174a565b60405180910390fd5b6109d734610c60565b7f9038e78bed6bd8498b1dc0946afa69fc4f3f3a8062e6df5ed8c7957a9d5ba5ef868686604051610a0a9392919061107c565b60405180910390a134915050949350505050565b60038181548110610a2e57600080fd5b90600052602060002090600302016000915090508060000154908060010154908060020160009054906101000a900460f81b905083565b610a6d610c85565b610a75610c85565b6000600380549050841015610a8a5783610a91565b6003805490505b90506000600a8211610aa4576000610ab2565b600a82610ab19190611799565b5b905060008290505b81811115610ba3576003600182610ad19190611799565b81548110610ae257610ae16117cd565b5b906000526020600020906003020160405180606001604052908160008201548152602001600182015481526020016002820160009054906101000a900460f81b7effffffffffffffffffffffffffffffffffffffffffffffffffffffffffffff19167effffffffffffffffffffffffffffffffffffffffffffffffffffffffffffff191681525050848285610b779190611799565b600a8110610b8857610b876117cd565b5b60200201819052508080610b9b906117fc565b915050610aba565b50829350505050919050565b6000600380549050905090565b60036040518060600160405280858152602001848152602001837effffffffffffffffffffffffffffffffffffffffffffffffffffffffffffff19168152509080600181540180825580915050600190039060005260206000209060030201600090919091909150600082015181600001556020820151816001015560408201518160020160006101000a81548160ff021916908360f81c02179055505050505050565b6000806000549150600154905082820191506001810190508160005580600155505050565b604051806101400160405280600a905b610c9d610cb3565b815260200190600190039081610c955790505090565b6040518060600160405280600080191681526020016000801916815260200160007effffffffffffffffffffffffffffffffffffffffffffffffffffffffffffff191681525090565b6000819050919050565b610d0f81610cfc565b82525050565b6000602082019050610d2a6000830184610d06565b92915050565b600080fd5b6000819050919050565b610d4881610d35565b8114610d5357600080fd5b50565b600081359050610d6581610d3f565b92915050565b60007fff0000000000000000000000000000000000000000000000000000000000000082169050919050565b610da081610d6b565b8114610dab57600080fd5b50565b600081359050610dbd81610d97565b92915050565b600073ffffffffffffffffffffffffffffffffffffffff82169050919050565b6000610dee82610dc3565b9050919050565b610dfe81610de3565b8114610e0957600080fd5b50565b600081359050610e1b81610df5565b92915050565b610e2a81610cfc565b8114610e3557600080fd5b50565b600081359050610e4781610e21565b92915050565b60008060008060008060c08789031215610e6a57610e69610d30565b5b6000610e7889828a01610d56565b9650506020610e8989828a01610d56565b9550506040610e9a89828a01610dae565b9450506060610eab89828a01610e0c565b9350506080610ebc89828a01610e0c565b92505060a0610ecd89828a01610e38565b9150509295509295509295565b600081519050919050565b600082825260208201905092915050565b60005b83811015610f14578082015181840152602081019050610ef9565b60008484015250505050565b6000601f19601f8301169050919050565b6000610f3c82610eda565b610f468185610ee5565b9350610f56818560208601610ef6565b610f5f81610f20565b840191505092915050565b60006020820190508181036000830152610f848184610f31565b905092915050565b6000610f9782610dc3565b9050919050565b610fa781610f8c565b8114610fb257600080fd5b50565b600081359050610fc481610f9e565b92915050565b60008060008060808587031215610fe457610fe3610d30565b5b6000610ff287828801610d56565b945050602061100387828801610d56565b935050604061101487828801610dae565b925050606061102587828801610fb5565b91505092959194509250565b60006020828403121561104757611046610d30565b5b600061105584828501610e38565b91505092915050565b61106781610d35565b82525050565b61107681610d6b565b82525050565b6000606082019050611091600083018661105e565b61109e602083018561105e565b6110ab604083018461106d565b949350505050565b6000600a9050919050565b600081905092915050565b6000819050919050565b6110dc81610d35565b82525050565b6110eb81610d6b565b82525050565b60608201600082015161110760008501826110d3565b50602082015161111a60208501826110d3565b50604082015161112d60408501826110e2565b50505050565b600061113f83836110f1565b60608301905092915050565b6000602082019050919050565b611161816110b3565b61116b81846110be565b9250611176826110c9565b8060005b838110156111a757815161118e8782611133565b96506111998361114b565b92505060018101905061117a565b505050505050565b60006103c0820190506111c56000830184611158565b92915050565b7f20456e7465722074686520746f6b656e20616464726573730000000000000000600082015250565b6000611201601883610ee5565b915061120c826111cb565b602082019050919050565b60006020820190508181036000830152611230816111f4565b9050919050565b60008151905061124681610df5565b92915050565b60006020828403121561126257611261610d30565b5b600061127084828501611237565b91505092915050565b7f596f7520617265206e6f7420746865206f776e6572206f66207468697320746f60008201527f6b656e4964000000000000000000000000000000000000000000000000000000602082015250565b60006112d5602583610ee5565b91506112e082611279565b604082019050919050565b60006020820190508181036000830152611304816112c8565b9050919050565b7f4e6f7420617070726f7665640000000000000000000000000000000000000000600082015250565b6000611341600c83610ee5565b915061134c8261130b565b602082019050919050565b6000602082019050818103600083015261137081611334565b9050919050565b61138081610de3565b82525050565b600060608201905061139b6000830186611377565b6113a86020830185611377565b6113b56040830184610d06565b949350505050565b7f546f6b656e206164647265737320726571756972656400000000000000000000600082015250565b60006113f3601683610ee5565b91506113fe826113bd565b602082019050919050565b60006020820190508181036000830152611422816113e6565b9050919050565b7f416d6f756e742073686f756c64206265206d6f7265207468616e203000000000600082015250565b600061145f601c83610ee5565b915061146a82611429565b602082019050919050565b6000602082019050818103600083015261148e81611452565b9050919050565b60006020820190506114aa6000830184611377565b92915050565b6000815190506114bf81610e21565b92915050565b6000602082840312156114db576114da610d30565b5b60006114e9848285016114b0565b91505092915050565b7f4e6f7420656e6f75676820746f6b656e73000000000000000000000000000000600082015250565b6000611528601183610ee5565b9150611533826114f2565b602082019050919050565b600060208201905081810360008301526115578161151b565b9050919050565b60006040820190506115736000830185611377565b6115806020830184611377565b9392505050565b7f4e6f7420656e6f75676820616c6c6f77616e6365000000000000000000000000600082015250565b60006115bd601483610ee5565b91506115c882611587565b602082019050919050565b600060208201905081810360008301526115ec816115b0565b9050919050565b60008115159050919050565b611608816115f3565b811461161357600080fd5b50565b600081519050611625816115ff565b92915050565b60006020828403121561164157611640610d30565b5b600061164f84828501611616565b91505092915050565b7f4e487b7100000000000000000000000000000000000000000000000000000000600052602260045260246000fd5b6000600282049050600182168061169f57607f821691505b6020821081036116b2576116b1611658565b5b50919050565b600081905092915050565b50565b60006116d36000836116b8565b91506116de826116c3565b600082019050919050565b60006116f4826116c6565b9150819050919050565b7f5472616e7366657220746f20726563697069656e74206661696c656400000000600082015250565b6000611734601c83610ee5565b915061173f826116fe565b602082019050919050565b6000602082019050818103600083015261176381611727565b9050919050565b7f4e487b7100000000000000000000000000000000000000000000000000000000600052601160045260246000fd5b60006117a482610cfc565b91506117af83610cfc565b92508282039050818111156117c7576117c661176a565b5b92915050565b7f4e487b7100000000000000000000000000000000000000000000000000000000600052603260045260246000fd5b600061180782610cfc565b91506000820361181a5761181961176a565b5b60018203905091905056fea2646970667358221220c35c4403ca4ec1b52151b6acf579c5df4da59684ea3af21f964f8ee827f7db8a64736f6c63430008100033",
  "linkReferences": {},
  "deployedLinkReferences": {}
}